{
  "contractName": "LiquidityPool",
  "abi": [
    {
      "inputs": [],
      "stateMutability": "nonpayable",
      "type": "constructor"
    },
    {
      "anonymous": false,
      "inputs": [
        {
          "indexed": true,
          "internalType": "address",
          "name": "previousOwner",
          "type": "address"
        },
        {
          "indexed": true,
          "internalType": "address",
          "name": "newOwner",
          "type": "address"
        }
      ],
      "name": "OwnershipTransferred",
      "type": "event"
    },
    {
      "anonymous": false,
      "inputs": [
        {
          "indexed": false,
          "internalType": "bool",
          "name": "enabled",
          "type": "bool"
        }
      ],
      "name": "SwapAndLiquifyEnabledUpdated",
      "type": "event"
    },
    {
      "inputs": [],
      "name": "_routerAddress",
      "outputs": [
        {
          "internalType": "address",
          "name": "",
          "type": "address"
        }
      ],
      "stateMutability": "view",
      "type": "function"
    },
    {
      "inputs": [],
      "name": "owner",
      "outputs": [
        {
          "internalType": "address",
          "name": "",
          "type": "address"
        }
      ],
      "stateMutability": "view",
      "type": "function"
    },
    {
      "inputs": [],
      "name": "renounceOwnership",
      "outputs": [],
      "stateMutability": "nonpayable",
      "type": "function"
    },
    {
      "inputs": [],
      "name": "swapAndLiquifyEnabled",
      "outputs": [
        {
          "internalType": "bool",
          "name": "",
          "type": "bool"
        }
      ],
      "stateMutability": "view",
      "type": "function"
    },
    {
      "inputs": [
        {
          "internalType": "address",
          "name": "newOwner",
          "type": "address"
        }
      ],
      "name": "transferOwnership",
      "outputs": [],
      "stateMutability": "nonpayable",
      "type": "function"
    },
    {
      "inputs": [],
      "name": "uniswapV2Pair",
      "outputs": [
        {
          "internalType": "address",
          "name": "",
          "type": "address"
        }
      ],
      "stateMutability": "view",
      "type": "function"
    },
    {
      "inputs": [],
      "name": "uniswapV2Router",
      "outputs": [
        {
          "internalType": "contract IUniswapV2Router02",
          "name": "",
          "type": "address"
        }
      ],
      "stateMutability": "view",
      "type": "function"
    },
    {
      "stateMutability": "payable",
      "type": "receive"
    },
    {
      "inputs": [
        {
          "internalType": "bool",
          "name": "_enabled",
          "type": "bool"
        }
      ],
      "name": "setSwapAndLiquifyEnabled",
      "outputs": [],
      "stateMutability": "nonpayable",
      "type": "function"
    }
  ],
  "bytecode": "0x60c06040527310ed43c718714eb63d5aa57b78b54704e256024e600160006101000a81548173ffffffffffffffffffffffffffffffffffffffff021916908373ffffffffffffffffffffffffffffffffffffffff16021790555060018060146101000a81548160ff0219169083151502179055503480156200008057600080fd5b506000620000936200036160201b60201c565b9050806000806101000a81548173ffffffffffffffffffffffffffffffffffffffff021916908373ffffffffffffffffffffffffffffffffffffffff1602179055508073ffffffffffffffffffffffffffffffffffffffff16600073ffffffffffffffffffffffffffffffffffffffff167f8be0079c531659141344cd1fd0a4f28419497f9722a3daafe3b4186f6b6457e060405160405180910390a3506000600160009054906101000a900473ffffffffffffffffffffffffffffffffffffffff1690508073ffffffffffffffffffffffffffffffffffffffff1663c45a01556040518163ffffffff1660e01b815260040160206040518083038186803b1580156200019f57600080fd5b505afa158015620001b4573d6000803e3d6000fd5b505050506040513d601f19601f82011682018060405250810190620001da919062000380565b73ffffffffffffffffffffffffffffffffffffffff1663c9c65396308373ffffffffffffffffffffffffffffffffffffffff1663ad5c46486040518163ffffffff1660e01b815260040160206040518083038186803b1580156200023d57600080fd5b505afa15801562000252573d6000803e3d6000fd5b505050506040513d601f19601f8201168201806040525081019062000278919062000380565b6040518363ffffffff1660e01b815260040162000297929190620003bd565b602060405180830381600087803b158015620002b257600080fd5b505af1158015620002c7573d6000803e3d6000fd5b505050506040513d601f19601f82011682018060405250810190620002ed919062000380565b73ffffffffffffffffffffffffffffffffffffffff1660a08173ffffffffffffffffffffffffffffffffffffffff1660601b815250508073ffffffffffffffffffffffffffffffffffffffff1660808173ffffffffffffffffffffffffffffffffffffffff1660601b815250505062000438565b600033905090565b6000815190506200037a816200041e565b92915050565b6000602082840312156200039357600080fd5b6000620003a38482850162000369565b91505092915050565b620003b781620003ea565b82525050565b6000604082019050620003d46000830185620003ac565b620003e36020830184620003ac565b9392505050565b6000620003f782620003fe565b9050919050565b600073ffffffffffffffffffffffffffffffffffffffff82169050919050565b6200042981620003ea565b81146200043557600080fd5b50565b60805160601c60a05160601c6108ff6200046460003960006101f1015260006101cd01526108ff6000f3fe60806040526004361061007f5760003560e01c80638da5cb5b1161004e5780638da5cb5b14610123578063c49b9a801461014e578063d9e6646014610177578063f2fde38b146101a257610086565b80631694505e1461008b57806349bd5a5e146100b65780634a74bb02146100e1578063715018a61461010c57610086565b3661008657005b600080fd5b34801561009757600080fd5b506100a06101cb565b6040516100ad9190610755565b60405180910390f35b3480156100c257600080fd5b506100cb6101ef565b6040516100d8919061071f565b60405180910390f35b3480156100ed57600080fd5b506100f6610213565b604051610103919061073a565b60405180910390f35b34801561011857600080fd5b50610121610226565b005b34801561012f57600080fd5b50610138610360565b604051610145919061071f565b60405180910390f35b34801561015a57600080fd5b5061017560048036038101906101709190610683565b610389565b005b34801561018357600080fd5b5061018c610459565b604051610199919061071f565b60405180910390f35b3480156101ae57600080fd5b506101c960048036038101906101c4919061065a565b61047f565b005b7f000000000000000000000000000000000000000000000000000000000000000081565b7f000000000000000000000000000000000000000000000000000000000000000081565b600160149054906101000a900460ff1681565b61022e610628565b73ffffffffffffffffffffffffffffffffffffffff1661024c610360565b73ffffffffffffffffffffffffffffffffffffffff16146102a2576040517f08c379a000000000000000000000000000000000000000000000000000000000815260040161029990610790565b60405180910390fd5b600073ffffffffffffffffffffffffffffffffffffffff1660008054906101000a900473ffffffffffffffffffffffffffffffffffffffff1673ffffffffffffffffffffffffffffffffffffffff167f8be0079c531659141344cd1fd0a4f28419497f9722a3daafe3b4186f6b6457e060405160405180910390a360008060006101000a81548173ffffffffffffffffffffffffffffffffffffffff021916908373ffffffffffffffffffffffffffffffffffffffff160217905550565b60008060009054906101000a900473ffffffffffffffffffffffffffffffffffffffff16905090565b610391610628565b73ffffffffffffffffffffffffffffffffffffffff166103af610360565b73ffffffffffffffffffffffffffffffffffffffff1614610405576040517f08c379a00000000000000000000000000000000000000000000000000000000081526004016103fc90610790565b60405180910390fd5b80600160146101000a81548160ff0219169083151502179055507f53726dfcaf90650aa7eb35524f4d3220f07413c8d6cb404cc8c18bf5591bc1598160405161044e919061073a565b60405180910390a150565b600160009054906101000a900473ffffffffffffffffffffffffffffffffffffffff1681565b610487610628565b73ffffffffffffffffffffffffffffffffffffffff166104a5610360565b73ffffffffffffffffffffffffffffffffffffffff16146104fb576040517f08c379a00000000000000000000000000000000000000000000000000000000081526004016104f290610790565b60405180910390fd5b600073ffffffffffffffffffffffffffffffffffffffff168173ffffffffffffffffffffffffffffffffffffffff16141561056b576040517f08c379a000000000000000000000000000000000000000000000000000000000815260040161056290610770565b60405180910390fd5b8073ffffffffffffffffffffffffffffffffffffffff1660008054906101000a900473ffffffffffffffffffffffffffffffffffffffff1673ffffffffffffffffffffffffffffffffffffffff167f8be0079c531659141344cd1fd0a4f28419497f9722a3daafe3b4186f6b6457e060405160405180910390a3806000806101000a81548173ffffffffffffffffffffffffffffffffffffffff021916908373ffffffffffffffffffffffffffffffffffffffff16021790555050565b600033905090565b60008135905061063f8161089b565b92915050565b600081359050610654816108b2565b92915050565b60006020828403121561066c57600080fd5b600061067a84828501610630565b91505092915050565b60006020828403121561069557600080fd5b60006106a384828501610645565b91505092915050565b6106b5816107c1565b82525050565b6106c4816107d3565b82525050565b6106d3816107ff565b82525050565b60006106e66026836107b0565b91506106f182610823565b604082019050919050565b60006107096020836107b0565b915061071482610872565b602082019050919050565b600060208201905061073460008301846106ac565b92915050565b600060208201905061074f60008301846106bb565b92915050565b600060208201905061076a60008301846106ca565b92915050565b60006020820190508181036000830152610789816106d9565b9050919050565b600060208201905081810360008301526107a9816106fc565b9050919050565b600082825260208201905092915050565b60006107cc826107df565b9050919050565b60008115159050919050565b600073ffffffffffffffffffffffffffffffffffffffff82169050919050565b600061080a82610811565b9050919050565b600061081c826107df565b9050919050565b7f4f776e61626c653a206e6577206f776e657220697320746865207a65726f206160008201527f6464726573730000000000000000000000000000000000000000000000000000602082015250565b7f4f776e61626c653a2063616c6c6572206973206e6f7420746865206f776e6572600082015250565b6108a4816107c1565b81146108af57600080fd5b50565b6108bb816107d3565b81146108c657600080fd5b5056fea2646970667358221220ecb008cc76d64b5a84746a25e0771f0be04a6de126f2bd5e825f2ab07e0c473b64736f6c63430008010033",
  "immutableReferences": {
    "9": [
      {
        "length": 32,
        "start": 461
      }
    ],
    "11": [
      {
        "length": 32,
        "start": 497
      }
    ]
  },
  "source": "// SPDX-License-Identifier: MIT\npragma solidity >=0.4.22 <0.9.0;\n\nimport \"@uniswap/v2-core/contracts/interfaces/IUniswapV2Factory.sol\";\nimport \"@uniswap/v2-periphery/contracts/interfaces/IUniswapV2Router02.sol\";\nimport \"@openzeppelin/contracts/access/Ownable.sol\";\n\ncontract LiquidityPool is Ownable {\n    IUniswapV2Router02 public immutable uniswapV2Router;\n    address public immutable uniswapV2Pair;\n    address public _routerAddress = 0x10ED43C718714eb63d5aA57B78B54704E256024E;\n\n    bool public swapAndLiquifyEnabled = true;\n\n    // event\n    event SwapAndLiquifyEnabledUpdated(bool enabled);\n\n    constructor() {\n        IUniswapV2Router02 _uniswapV2Router =\n            IUniswapV2Router02(_routerAddress);\n        // Create a uniswap pair for this new token\n        uniswapV2Pair = IUniswapV2Factory(_uniswapV2Router.factory())\n            .createPair(address(this), _uniswapV2Router.WETH());\n\n        // set the rest of the contract variables\n        uniswapV2Router = _uniswapV2Router;\n    }\n\n    //to recieve ETH from uniswapV2Router when swapping\n    receive() external payable {}\n\n    function setSwapAndLiquifyEnabled(bool _enabled) public onlyOwner {\n        swapAndLiquifyEnabled = _enabled;\n        emit SwapAndLiquifyEnabledUpdated(_enabled);\n    }\n}\n",
  "sourcePath": "/Users/iqbal/Projects/SmartContract/SafezMoon/contracts/LiquidityPool.sol",
  "compiler": {
    "name": "solc",
    "version": "0.8.1+commit.df193b15.Emscripten.clang"
  },
  "schemaVersion": "3.4.1",
  "updatedAt": "2021-06-08T22:28:25.592Z",
  "devdoc": {
    "kind": "dev",
    "methods": {
      "owner()": {
        "details": "Returns the address of the current owner."
      },
      "renounceOwnership()": {
        "details": "Leaves the contract without owner. It will not be possible to call `onlyOwner` functions anymore. Can only be called by the current owner. NOTE: Renouncing ownership will leave the contract without an owner, thereby removing any functionality that is only available to the owner."
      },
      "transferOwnership(address)": {
        "details": "Transfers ownership of the contract to a new account (`newOwner`). Can only be called by the current owner."
      }
    },
    "version": 1
  },
  "userdoc": {
    "kind": "user",
    "methods": {},
    "version": 1
  }
}