{
  "contractName": "Token",
  "abi": [
    {
      "inputs": [
        {
          "internalType": "uint256",
          "name": "initialSupply",
          "type": "uint256"
        },
        {
          "internalType": "address",
          "name": "wallet",
          "type": "address"
        }
      ],
      "stateMutability": "nonpayable",
      "type": "constructor"
    },
    {
      "anonymous": false,
      "inputs": [
        {
          "indexed": true,
          "internalType": "address",
          "name": "owner",
          "type": "address"
        },
        {
          "indexed": true,
          "internalType": "address",
          "name": "spender",
          "type": "address"
        },
        {
          "indexed": false,
          "internalType": "uint256",
          "name": "value",
          "type": "uint256"
        }
      ],
      "name": "Approval",
      "type": "event"
    },
    {
      "anonymous": false,
      "inputs": [
        {
          "indexed": true,
          "internalType": "address",
          "name": "previousOwner",
          "type": "address"
        },
        {
          "indexed": true,
          "internalType": "address",
          "name": "newOwner",
          "type": "address"
        }
      ],
      "name": "OwnershipTransferred",
      "type": "event"
    },
    {
      "anonymous": false,
      "inputs": [
        {
          "indexed": true,
          "internalType": "address",
          "name": "from",
          "type": "address"
        },
        {
          "indexed": true,
          "internalType": "address",
          "name": "to",
          "type": "address"
        },
        {
          "indexed": false,
          "internalType": "uint256",
          "name": "value",
          "type": "uint256"
        }
      ],
      "name": "Transfer",
      "type": "event"
    },
    {
      "inputs": [],
      "name": "_iTaxFeeInPercent",
      "outputs": [
        {
          "internalType": "uint256",
          "name": "",
          "type": "uint256"
        }
      ],
      "stateMutability": "view",
      "type": "function"
    },
    {
      "inputs": [],
      "name": "_liquidityPool",
      "outputs": [
        {
          "internalType": "contract LiquidityPool",
          "name": "",
          "type": "address"
        }
      ],
      "stateMutability": "view",
      "type": "function"
    },
    {
      "inputs": [],
      "name": "_name",
      "outputs": [
        {
          "internalType": "string",
          "name": "",
          "type": "string"
        }
      ],
      "stateMutability": "view",
      "type": "function"
    },
    {
      "inputs": [],
      "name": "_symbol",
      "outputs": [
        {
          "internalType": "string",
          "name": "",
          "type": "string"
        }
      ],
      "stateMutability": "view",
      "type": "function"
    },
    {
      "inputs": [],
      "name": "_treasuryWallet",
      "outputs": [
        {
          "internalType": "address",
          "name": "",
          "type": "address"
        }
      ],
      "stateMutability": "view",
      "type": "function"
    },
    {
      "inputs": [
        {
          "internalType": "address",
          "name": "owner",
          "type": "address"
        },
        {
          "internalType": "address",
          "name": "spender",
          "type": "address"
        }
      ],
      "name": "allowance",
      "outputs": [
        {
          "internalType": "uint256",
          "name": "",
          "type": "uint256"
        }
      ],
      "stateMutability": "view",
      "type": "function"
    },
    {
      "inputs": [
        {
          "internalType": "address",
          "name": "spender",
          "type": "address"
        },
        {
          "internalType": "uint256",
          "name": "amount",
          "type": "uint256"
        }
      ],
      "name": "approve",
      "outputs": [
        {
          "internalType": "bool",
          "name": "",
          "type": "bool"
        }
      ],
      "stateMutability": "nonpayable",
      "type": "function"
    },
    {
      "inputs": [
        {
          "internalType": "address",
          "name": "account",
          "type": "address"
        }
      ],
      "name": "balanceOf",
      "outputs": [
        {
          "internalType": "uint256",
          "name": "",
          "type": "uint256"
        }
      ],
      "stateMutability": "view",
      "type": "function"
    },
    {
      "inputs": [],
      "name": "decimals",
      "outputs": [
        {
          "internalType": "uint8",
          "name": "",
          "type": "uint8"
        }
      ],
      "stateMutability": "view",
      "type": "function"
    },
    {
      "inputs": [
        {
          "internalType": "address",
          "name": "spender",
          "type": "address"
        },
        {
          "internalType": "uint256",
          "name": "subtractedValue",
          "type": "uint256"
        }
      ],
      "name": "decreaseAllowance",
      "outputs": [
        {
          "internalType": "bool",
          "name": "",
          "type": "bool"
        }
      ],
      "stateMutability": "nonpayable",
      "type": "function"
    },
    {
      "inputs": [
        {
          "internalType": "address",
          "name": "spender",
          "type": "address"
        },
        {
          "internalType": "uint256",
          "name": "addedValue",
          "type": "uint256"
        }
      ],
      "name": "increaseAllowance",
      "outputs": [
        {
          "internalType": "bool",
          "name": "",
          "type": "bool"
        }
      ],
      "stateMutability": "nonpayable",
      "type": "function"
    },
    {
      "inputs": [],
      "name": "name",
      "outputs": [
        {
          "internalType": "string",
          "name": "",
          "type": "string"
        }
      ],
      "stateMutability": "view",
      "type": "function"
    },
    {
      "inputs": [],
      "name": "owner",
      "outputs": [
        {
          "internalType": "address",
          "name": "",
          "type": "address"
        }
      ],
      "stateMutability": "view",
      "type": "function"
    },
    {
      "inputs": [],
      "name": "renounceOwnership",
      "outputs": [],
      "stateMutability": "nonpayable",
      "type": "function"
    },
    {
      "inputs": [],
      "name": "symbol",
      "outputs": [
        {
          "internalType": "string",
          "name": "",
          "type": "string"
        }
      ],
      "stateMutability": "view",
      "type": "function"
    },
    {
      "inputs": [],
      "name": "totalSupply",
      "outputs": [
        {
          "internalType": "uint256",
          "name": "",
          "type": "uint256"
        }
      ],
      "stateMutability": "view",
      "type": "function"
    },
    {
      "inputs": [
        {
          "internalType": "address",
          "name": "sender",
          "type": "address"
        },
        {
          "internalType": "address",
          "name": "recipient",
          "type": "address"
        },
        {
          "internalType": "uint256",
          "name": "amount",
          "type": "uint256"
        }
      ],
      "name": "transferFrom",
      "outputs": [
        {
          "internalType": "bool",
          "name": "",
          "type": "bool"
        }
      ],
      "stateMutability": "nonpayable",
      "type": "function"
    },
    {
      "inputs": [
        {
          "internalType": "address",
          "name": "newOwner",
          "type": "address"
        }
      ],
      "name": "transferOwnership",
      "outputs": [],
      "stateMutability": "nonpayable",
      "type": "function"
    },
    {
      "inputs": [
        {
          "internalType": "address",
          "name": "receipent",
          "type": "address"
        },
        {
          "internalType": "uint256",
          "name": "amount",
          "type": "uint256"
        }
      ],
      "name": "transfer",
      "outputs": [
        {
          "internalType": "bool",
          "name": "",
          "type": "bool"
        }
      ],
      "stateMutability": "nonpayable",
      "type": "function"
    }
  ],
  "bytecode": "0x60806040526040518060400160405280601181526020017f5361666550656e6e792e46696e616e63650000000000000000000000000000008152506006908051906020019062000051929190620005a6565b506040518060400160405280600681526020017f5350454e4e590000000000000000000000000000000000000000000000000000815250600790805190602001906200009f929190620005a6565b506005600a556000600b55348015620000b757600080fd5b506040516200347c3803806200347c8339818101604052810190620000dd919062000692565b60068054620000ec906200083f565b80601f01602080910402602001604051908101604052809291908181526020018280546200011a906200083f565b80156200016b5780601f106200013f576101008083540402835291602001916200016b565b820191906000526020600020905b8154815290600101906020018083116200014d57829003601f168201915b5050505050600780546200017f906200083f565b80601f0160208091040260200160405190810160405280929190818152602001828054620001ad906200083f565b8015620001fe5780601f10620001d257610100808354040283529160200191620001fe565b820191906000526020600020905b815481529060010190602001808311620001e057829003601f168201915b505050505081600390805190602001906200021b929190620005a6565b50806004908051906020019062000234929190620005a6565b505050600062000249620003d160201b60201c565b905080600560006101000a81548173ffffffffffffffffffffffffffffffffffffffff021916908373ffffffffffffffffffffffffffffffffffffffff1602179055508073ffffffffffffffffffffffffffffffffffffffff16600073ffffffffffffffffffffffffffffffffffffffff167f8be0079c531659141344cd1fd0a4f28419497f9722a3daafe3b4186f6b6457e060405160405180910390a35080600c60006101000a81548173ffffffffffffffffffffffffffffffffffffffff021916908373ffffffffffffffffffffffffffffffffffffffff1602179055506200035d600c60009054906101000a900473ffffffffffffffffffffffffffffffffffffffff1683620003d960201b60201c565b6040516200036b9062000637565b604051809103906000f08015801562000388573d6000803e3d6000fd5b50600d60006101000a81548173ffffffffffffffffffffffffffffffffffffffff021916908373ffffffffffffffffffffffffffffffffffffffff16021790555050506200097f565b600033905090565b600073ffffffffffffffffffffffffffffffffffffffff168273ffffffffffffffffffffffffffffffffffffffff1614156200044c576040517f08c379a0000000000000000000000000000000000000000000000000000000008152600401620004439062000754565b60405180910390fd5b62000460600083836200053e60201b60201c565b8060026000828254620004749190620007a4565b92505081905550806000808473ffffffffffffffffffffffffffffffffffffffff1673ffffffffffffffffffffffffffffffffffffffff1681526020019081526020016000206000828254620004cb9190620007a4565b925050819055508173ffffffffffffffffffffffffffffffffffffffff16600073ffffffffffffffffffffffffffffffffffffffff167fddf252ad1be2c89b69c2b068fc378daa952ba7f163c4a11628f55a4df523b3ef8360405162000532919062000776565b60405180910390a35050565b62000556838383620005a160201b62000d251760201c565b600081116200059c576040517f08c379a0000000000000000000000000000000000000000000000000000000008152600401620005939062000732565b60405180910390fd5b505050565b505050565b828054620005b4906200083f565b90600052602060002090601f016020900481019282620005d8576000855562000624565b82601f10620005f357805160ff191683800117855562000624565b8280016001018555821562000624579182015b828111156200062357825182559160200191906001019062000606565b5b50905062000633919062000645565b5090565b610d63806200271983390190565b5b808211156200066057600081600090555060010162000646565b5090565b60008151905062000675816200094b565b92915050565b6000815190506200068c8162000965565b92915050565b60008060408385031215620006a657600080fd5b6000620006b6858286016200067b565b9250506020620006c98582860162000664565b9150509250929050565b6000620006e260298362000793565b9150620006ef82620008d3565b604082019050919050565b600062000709601f8362000793565b9150620007168262000922565b602082019050919050565b6200072c8162000835565b82525050565b600060208201905081810360008301526200074d81620006d3565b9050919050565b600060208201905081810360008301526200076f81620006fa565b9050919050565b60006020820190506200078d600083018462000721565b92915050565b600082825260208201905092915050565b6000620007b18262000835565b9150620007be8362000835565b9250827fffffffffffffffffffffffffffffffffffffffffffffffffffffffffffffffff03821115620007f657620007f562000875565b5b828201905092915050565b60006200080e8262000815565b9050919050565b600073ffffffffffffffffffffffffffffffffffffffff82169050919050565b6000819050919050565b600060028204905060018216806200085857607f821691505b602082108114156200086f576200086e620008a4565b5b50919050565b7f4e487b7100000000000000000000000000000000000000000000000000000000600052601160045260246000fd5b7f4e487b7100000000000000000000000000000000000000000000000000000000600052602260045260246000fd5b7f5472616e7366657220616d6f756e74206d75737420626520677265617465722060008201527f7468616e207a65726f0000000000000000000000000000000000000000000000602082015250565b7f45524332303a206d696e7420746f20746865207a65726f206164647265737300600082015250565b620009568162000801565b81146200096257600080fd5b50565b620009708162000835565b81146200097c57600080fd5b50565b611d8a806200098f6000396000f3fe608060405234801561001057600080fd5b50600436106101215760003560e01c8063715018a6116100ad578063a9059cbb11610071578063a9059cbb14610310578063b09f126614610340578063d28d88521461035e578063dd62ed3e1461037c578063f2fde38b146103ac57610121565b8063715018a61461027c5780638b6bac55146102865780638da5cb5b146102a457806395d89b41146102c2578063a457c2d7146102e057610121565b806323b872dd116100f457806323b872dd146101b0578063269d1faa146101e0578063313ce567146101fe578063395093511461021c57806370a082311461024c57610121565b806306fdde0314610126578063095ea7b31461014457806318160ddd14610174578063207deba014610192575b600080fd5b61012e6103c8565b60405161013b91906115f1565b60405180910390f35b61015e60048036038101906101599190611382565b61045a565b60405161016b91906115bb565b60405180910390f35b61017c610478565b6040516101899190611753565b60405180910390f35b61019a610482565b6040516101a791906115d6565b60405180910390f35b6101ca60048036038101906101c59190611333565b6104a8565b6040516101d791906115bb565b60405180910390f35b6101e86105a9565b6040516101f591906115a0565b60405180910390f35b6102066105cf565b604051610213919061176e565b60405180910390f35b61023660048036038101906102319190611382565b6105d8565b60405161024391906115bb565b60405180910390f35b610266600480360381019061026191906112ce565b610684565b6040516102739190611753565b60405180910390f35b6102846106cc565b005b61028e610809565b60405161029b9190611753565b60405180910390f35b6102ac61080f565b6040516102b991906115a0565b60405180910390f35b6102ca610839565b6040516102d791906115f1565b60405180910390f35b6102fa60048036038101906102f59190611382565b6108cb565b60405161030791906115bb565b60405180910390f35b61032a60048036038101906103259190611382565b6109bf565b60405161033791906115bb565b60405180910390f35b6103486109d6565b60405161035591906115f1565b60405180910390f35b610366610a64565b60405161037391906115f1565b60405180910390f35b610396600480360381019061039191906112f7565b610af2565b6040516103a39190611753565b60405180910390f35b6103c660048036038101906103c191906112ce565b610b79565b005b6060600380546103d790611966565b80601f016020809104026020016040519081016040528092919081815260200182805461040390611966565b80156104505780601f1061042557610100808354040283529160200191610450565b820191906000526020600020905b81548152906001019060200180831161043357829003601f168201915b5050505050905090565b600061046e610467610d2a565b8484610d32565b6001905092915050565b6000600254905090565b600d60009054906101000a900473ffffffffffffffffffffffffffffffffffffffff1681565b60006104b5848484610efd565b6000600160008673ffffffffffffffffffffffffffffffffffffffff1673ffffffffffffffffffffffffffffffffffffffff1681526020019081526020016000206000610500610d2a565b73ffffffffffffffffffffffffffffffffffffffff1673ffffffffffffffffffffffffffffffffffffffff16815260200190815260200160002054905082811015610580576040517f08c379a000000000000000000000000000000000000000000000000000000000815260040161057790611693565b60405180910390fd5b61059d8561058c610d2a565b85846105989190611886565b610d32565b60019150509392505050565b600c60009054906101000a900473ffffffffffffffffffffffffffffffffffffffff1681565b60006012905090565b600061067a6105e5610d2a565b8484600160006105f3610d2a565b73ffffffffffffffffffffffffffffffffffffffff1673ffffffffffffffffffffffffffffffffffffffff16815260200190815260200160002060008873ffffffffffffffffffffffffffffffffffffffff1673ffffffffffffffffffffffffffffffffffffffff1681526020019081526020016000205461067591906117a5565b610d32565b6001905092915050565b60008060008373ffffffffffffffffffffffffffffffffffffffff1673ffffffffffffffffffffffffffffffffffffffff168152602001908152602001600020549050919050565b6106d4610d2a565b73ffffffffffffffffffffffffffffffffffffffff166106f261080f565b73ffffffffffffffffffffffffffffffffffffffff1614610748576040517f08c379a000000000000000000000000000000000000000000000000000000000815260040161073f906116b3565b60405180910390fd5b600073ffffffffffffffffffffffffffffffffffffffff16600560009054906101000a900473ffffffffffffffffffffffffffffffffffffffff1673ffffffffffffffffffffffffffffffffffffffff167f8be0079c531659141344cd1fd0a4f28419497f9722a3daafe3b4186f6b6457e060405160405180910390a36000600560006101000a81548173ffffffffffffffffffffffffffffffffffffffff021916908373ffffffffffffffffffffffffffffffffffffffff160217905550565b600a5481565b6000600560009054906101000a900473ffffffffffffffffffffffffffffffffffffffff16905090565b60606004805461084890611966565b80601f016020809104026020016040519081016040528092919081815260200182805461087490611966565b80156108c15780601f10610896576101008083540402835291602001916108c1565b820191906000526020600020905b8154815290600101906020018083116108a457829003601f168201915b5050505050905090565b600080600160006108da610d2a565b73ffffffffffffffffffffffffffffffffffffffff1673ffffffffffffffffffffffffffffffffffffffff16815260200190815260200160002060008573ffffffffffffffffffffffffffffffffffffffff1673ffffffffffffffffffffffffffffffffffffffff16815260200190815260200160002054905082811015610997576040517f08c379a000000000000000000000000000000000000000000000000000000000815260040161098e90611733565b60405180910390fd5b6109b46109a2610d2a565b8585846109af9190611886565b610d32565b600191505092915050565b60006109cc83308461117c565b6001905092915050565b600780546109e390611966565b80601f0160208091040260200160405190810160405280929190818152602001828054610a0f90611966565b8015610a5c5780601f10610a3157610100808354040283529160200191610a5c565b820191906000526020600020905b815481529060010190602001808311610a3f57829003601f168201915b505050505081565b60068054610a7190611966565b80601f0160208091040260200160405190810160405280929190818152602001828054610a9d90611966565b8015610aea5780601f10610abf57610100808354040283529160200191610aea565b820191906000526020600020905b815481529060010190602001808311610acd57829003601f168201915b505050505081565b6000600160008473ffffffffffffffffffffffffffffffffffffffff1673ffffffffffffffffffffffffffffffffffffffff16815260200190815260200160002060008373ffffffffffffffffffffffffffffffffffffffff1673ffffffffffffffffffffffffffffffffffffffff16815260200190815260200160002054905092915050565b610b81610d2a565b73ffffffffffffffffffffffffffffffffffffffff16610b9f61080f565b73ffffffffffffffffffffffffffffffffffffffff1614610bf5576040517f08c379a0000000000000000000000000000000000000000000000000000000008152600401610bec906116b3565b60405180910390fd5b600073ffffffffffffffffffffffffffffffffffffffff168173ffffffffffffffffffffffffffffffffffffffff161415610c65576040517f08c379a0000000000000000000000000000000000000000000000000000000008152600401610c5c90611633565b60405180910390fd5b8073ffffffffffffffffffffffffffffffffffffffff16600560009054906101000a900473ffffffffffffffffffffffffffffffffffffffff1673ffffffffffffffffffffffffffffffffffffffff167f8be0079c531659141344cd1fd0a4f28419497f9722a3daafe3b4186f6b6457e060405160405180910390a380600560006101000a81548173ffffffffffffffffffffffffffffffffffffffff021916908373ffffffffffffffffffffffffffffffffffffffff16021790555050565b505050565b600033905090565b600073ffffffffffffffffffffffffffffffffffffffff168373ffffffffffffffffffffffffffffffffffffffff161415610da2576040517f08c379a0000000000000000000000000000000000000000000000000000000008152600401610d9990611713565b60405180910390fd5b600073ffffffffffffffffffffffffffffffffffffffff168273ffffffffffffffffffffffffffffffffffffffff161415610e12576040517f08c379a0000000000000000000000000000000000000000000000000000000008152600401610e0990611653565b60405180910390fd5b80600160008573ffffffffffffffffffffffffffffffffffffffff1673ffffffffffffffffffffffffffffffffffffffff16815260200190815260200160002060008473ffffffffffffffffffffffffffffffffffffffff1673ffffffffffffffffffffffffffffffffffffffff168152602001908152602001600020819055508173ffffffffffffffffffffffffffffffffffffffff168373ffffffffffffffffffffffffffffffffffffffff167f8c5be1e5ebec7d5bd14f71427d1e84f3dd0314c0f7b2291e5b200ac8c7c3b92583604051610ef09190611753565b60405180910390a3505050565b600073ffffffffffffffffffffffffffffffffffffffff168373ffffffffffffffffffffffffffffffffffffffff161415610f6d576040517f08c379a0000000000000000000000000000000000000000000000000000000008152600401610f64906116f3565b60405180910390fd5b600073ffffffffffffffffffffffffffffffffffffffff168273ffffffffffffffffffffffffffffffffffffffff161415610fdd576040517f08c379a0000000000000000000000000000000000000000000000000000000008152600401610fd490611613565b60405180910390fd5b610fe88383836111f4565b60008060008573ffffffffffffffffffffffffffffffffffffffff1673ffffffffffffffffffffffffffffffffffffffff1681526020019081526020016000205490508181101561106e576040517f08c379a000000000000000000000000000000000000000000000000000000000815260040161106590611673565b60405180910390fd5b818161107a9190611886565b6000808673ffffffffffffffffffffffffffffffffffffffff1673ffffffffffffffffffffffffffffffffffffffff16815260200190815260200160002081905550816000808573ffffffffffffffffffffffffffffffffffffffff1673ffffffffffffffffffffffffffffffffffffffff168152602001908152602001600020600082825461110a91906117a5565b925050819055508273ffffffffffffffffffffffffffffffffffffffff168473ffffffffffffffffffffffffffffffffffffffff167fddf252ad1be2c89b69c2b068fc378daa952ba7f163c4a11628f55a4df523b3ef8460405161116e9190611753565b60405180910390a350505050565b600061118782611247565b90508373ffffffffffffffffffffffffffffffffffffffff168373ffffffffffffffffffffffffffffffffffffffff167fddf252ad1be2c89b69c2b068fc378daa952ba7f163c4a11628f55a4df523b3ef836040516111e69190611753565b60405180910390a350505050565b6111ff838383610d25565b60008111611242576040517f08c379a0000000000000000000000000000000000000000000000000000000008152600401611239906116d3565b60405180910390fd5b505050565b60006112716064611263600a548561127890919063ffffffff16565b61128e90919063ffffffff16565b9050919050565b60008183611286919061182c565b905092915050565b6000818361129c91906117fb565b905092915050565b6000813590506112b381611d26565b92915050565b6000813590506112c881611d3d565b92915050565b6000602082840312156112e057600080fd5b60006112ee848285016112a4565b91505092915050565b6000806040838503121561130a57600080fd5b6000611318858286016112a4565b9250506020611329858286016112a4565b9150509250929050565b60008060006060848603121561134857600080fd5b6000611356868287016112a4565b9350506020611367868287016112a4565b9250506040611378868287016112b9565b9150509250925092565b6000806040838503121561139557600080fd5b60006113a3858286016112a4565b92505060206113b4858286016112b9565b9150509250929050565b6113c7816118ba565b82525050565b6113d6816118cc565b82525050565b6113e58161190f565b82525050565b60006113f682611789565b6114008185611794565b9350611410818560208601611933565b61141981611a25565b840191505092915050565b6000611431602383611794565b915061143c82611a36565b604082019050919050565b6000611454602683611794565b915061145f82611a85565b604082019050919050565b6000611477602283611794565b915061148282611ad4565b604082019050919050565b600061149a602683611794565b91506114a582611b23565b604082019050919050565b60006114bd602883611794565b91506114c882611b72565b604082019050919050565b60006114e0602083611794565b91506114eb82611bc1565b602082019050919050565b6000611503602983611794565b915061150e82611bea565b604082019050919050565b6000611526602583611794565b915061153182611c39565b604082019050919050565b6000611549602483611794565b915061155482611c88565b604082019050919050565b600061156c602583611794565b915061157782611cd7565b604082019050919050565b61158b816118f8565b82525050565b61159a81611902565b82525050565b60006020820190506115b560008301846113be565b92915050565b60006020820190506115d060008301846113cd565b92915050565b60006020820190506115eb60008301846113dc565b92915050565b6000602082019050818103600083015261160b81846113eb565b905092915050565b6000602082019050818103600083015261162c81611424565b9050919050565b6000602082019050818103600083015261164c81611447565b9050919050565b6000602082019050818103600083015261166c8161146a565b9050919050565b6000602082019050818103600083015261168c8161148d565b9050919050565b600060208201905081810360008301526116ac816114b0565b9050919050565b600060208201905081810360008301526116cc816114d3565b9050919050565b600060208201905081810360008301526116ec816114f6565b9050919050565b6000602082019050818103600083015261170c81611519565b9050919050565b6000602082019050818103600083015261172c8161153c565b9050919050565b6000602082019050818103600083015261174c8161155f565b9050919050565b60006020820190506117686000830184611582565b92915050565b60006020820190506117836000830184611591565b92915050565b600081519050919050565b600082825260208201905092915050565b60006117b0826118f8565b91506117bb836118f8565b9250827fffffffffffffffffffffffffffffffffffffffffffffffffffffffffffffffff038211156117f0576117ef611998565b5b828201905092915050565b6000611806826118f8565b9150611811836118f8565b925082611821576118206119c7565b5b828204905092915050565b6000611837826118f8565b9150611842836118f8565b9250817fffffffffffffffffffffffffffffffffffffffffffffffffffffffffffffffff048311821515161561187b5761187a611998565b5b828202905092915050565b6000611891826118f8565b915061189c836118f8565b9250828210156118af576118ae611998565b5b828203905092915050565b60006118c5826118d8565b9050919050565b60008115159050919050565b600073ffffffffffffffffffffffffffffffffffffffff82169050919050565b6000819050919050565b600060ff82169050919050565b600061191a82611921565b9050919050565b600061192c826118d8565b9050919050565b60005b83811015611951578082015181840152602081019050611936565b83811115611960576000848401525b50505050565b6000600282049050600182168061197e57607f821691505b60208210811415611992576119916119f6565b5b50919050565b7f4e487b7100000000000000000000000000000000000000000000000000000000600052601160045260246000fd5b7f4e487b7100000000000000000000000000000000000000000000000000000000600052601260045260246000fd5b7f4e487b7100000000000000000000000000000000000000000000000000000000600052602260045260246000fd5b6000601f19601f8301169050919050565b7f45524332303a207472616e7366657220746f20746865207a65726f206164647260008201527f6573730000000000000000000000000000000000000000000000000000000000602082015250565b7f4f776e61626c653a206e6577206f776e657220697320746865207a65726f206160008201527f6464726573730000000000000000000000000000000000000000000000000000602082015250565b7f45524332303a20617070726f766520746f20746865207a65726f20616464726560008201527f7373000000000000000000000000000000000000000000000000000000000000602082015250565b7f45524332303a207472616e7366657220616d6f756e742065786365656473206260008201527f616c616e63650000000000000000000000000000000000000000000000000000602082015250565b7f45524332303a207472616e7366657220616d6f756e742065786365656473206160008201527f6c6c6f77616e6365000000000000000000000000000000000000000000000000602082015250565b7f4f776e61626c653a2063616c6c6572206973206e6f7420746865206f776e6572600082015250565b7f5472616e7366657220616d6f756e74206d75737420626520677265617465722060008201527f7468616e207a65726f0000000000000000000000000000000000000000000000602082015250565b7f45524332303a207472616e736665722066726f6d20746865207a65726f20616460008201527f6472657373000000000000000000000000000000000000000000000000000000602082015250565b7f45524332303a20617070726f76652066726f6d20746865207a65726f2061646460008201527f7265737300000000000000000000000000000000000000000000000000000000602082015250565b7f45524332303a2064656372656173656420616c6c6f77616e63652062656c6f7760008201527f207a65726f000000000000000000000000000000000000000000000000000000602082015250565b611d2f816118ba565b8114611d3a57600080fd5b50565b611d46816118f8565b8114611d5157600080fd5b5056fea26469706673582212206e100d3f1bf361f82ccc96292cad8ff9d35c86e5b180fb317d5bb8494d2fa78364736f6c6343000801003360c06040527310ed43c718714eb63d5aa57b78b54704e256024e600160006101000a81548173ffffffffffffffffffffffffffffffffffffffff021916908373ffffffffffffffffffffffffffffffffffffffff16021790555060018060146101000a81548160ff0219169083151502179055503480156200008057600080fd5b506000620000936200036160201b60201c565b9050806000806101000a81548173ffffffffffffffffffffffffffffffffffffffff021916908373ffffffffffffffffffffffffffffffffffffffff1602179055508073ffffffffffffffffffffffffffffffffffffffff16600073ffffffffffffffffffffffffffffffffffffffff167f8be0079c531659141344cd1fd0a4f28419497f9722a3daafe3b4186f6b6457e060405160405180910390a3506000600160009054906101000a900473ffffffffffffffffffffffffffffffffffffffff1690508073ffffffffffffffffffffffffffffffffffffffff1663c45a01556040518163ffffffff1660e01b815260040160206040518083038186803b1580156200019f57600080fd5b505afa158015620001b4573d6000803e3d6000fd5b505050506040513d601f19601f82011682018060405250810190620001da919062000380565b73ffffffffffffffffffffffffffffffffffffffff1663c9c65396308373ffffffffffffffffffffffffffffffffffffffff1663ad5c46486040518163ffffffff1660e01b815260040160206040518083038186803b1580156200023d57600080fd5b505afa15801562000252573d6000803e3d6000fd5b505050506040513d601f19601f8201168201806040525081019062000278919062000380565b6040518363ffffffff1660e01b815260040162000297929190620003bd565b602060405180830381600087803b158015620002b257600080fd5b505af1158015620002c7573d6000803e3d6000fd5b505050506040513d601f19601f82011682018060405250810190620002ed919062000380565b73ffffffffffffffffffffffffffffffffffffffff1660a08173ffffffffffffffffffffffffffffffffffffffff1660601b815250508073ffffffffffffffffffffffffffffffffffffffff1660808173ffffffffffffffffffffffffffffffffffffffff1660601b815250505062000438565b600033905090565b6000815190506200037a816200041e565b92915050565b6000602082840312156200039357600080fd5b6000620003a38482850162000369565b91505092915050565b620003b781620003ea565b82525050565b6000604082019050620003d46000830185620003ac565b620003e36020830184620003ac565b9392505050565b6000620003f782620003fe565b9050919050565b600073ffffffffffffffffffffffffffffffffffffffff82169050919050565b6200042981620003ea565b81146200043557600080fd5b50565b60805160601c60a05160601c6108ff6200046460003960006101f1015260006101cd01526108ff6000f3fe60806040526004361061007f5760003560e01c80638da5cb5b1161004e5780638da5cb5b14610123578063c49b9a801461014e578063d9e6646014610177578063f2fde38b146101a257610086565b80631694505e1461008b57806349bd5a5e146100b65780634a74bb02146100e1578063715018a61461010c57610086565b3661008657005b600080fd5b34801561009757600080fd5b506100a06101cb565b6040516100ad9190610755565b60405180910390f35b3480156100c257600080fd5b506100cb6101ef565b6040516100d8919061071f565b60405180910390f35b3480156100ed57600080fd5b506100f6610213565b604051610103919061073a565b60405180910390f35b34801561011857600080fd5b50610121610226565b005b34801561012f57600080fd5b50610138610360565b604051610145919061071f565b60405180910390f35b34801561015a57600080fd5b5061017560048036038101906101709190610683565b610389565b005b34801561018357600080fd5b5061018c610459565b604051610199919061071f565b60405180910390f35b3480156101ae57600080fd5b506101c960048036038101906101c4919061065a565b61047f565b005b7f000000000000000000000000000000000000000000000000000000000000000081565b7f000000000000000000000000000000000000000000000000000000000000000081565b600160149054906101000a900460ff1681565b61022e610628565b73ffffffffffffffffffffffffffffffffffffffff1661024c610360565b73ffffffffffffffffffffffffffffffffffffffff16146102a2576040517f08c379a000000000000000000000000000000000000000000000000000000000815260040161029990610790565b60405180910390fd5b600073ffffffffffffffffffffffffffffffffffffffff1660008054906101000a900473ffffffffffffffffffffffffffffffffffffffff1673ffffffffffffffffffffffffffffffffffffffff167f8be0079c531659141344cd1fd0a4f28419497f9722a3daafe3b4186f6b6457e060405160405180910390a360008060006101000a81548173ffffffffffffffffffffffffffffffffffffffff021916908373ffffffffffffffffffffffffffffffffffffffff160217905550565b60008060009054906101000a900473ffffffffffffffffffffffffffffffffffffffff16905090565b610391610628565b73ffffffffffffffffffffffffffffffffffffffff166103af610360565b73ffffffffffffffffffffffffffffffffffffffff1614610405576040517f08c379a00000000000000000000000000000000000000000000000000000000081526004016103fc90610790565b60405180910390fd5b80600160146101000a81548160ff0219169083151502179055507f53726dfcaf90650aa7eb35524f4d3220f07413c8d6cb404cc8c18bf5591bc1598160405161044e919061073a565b60405180910390a150565b600160009054906101000a900473ffffffffffffffffffffffffffffffffffffffff1681565b610487610628565b73ffffffffffffffffffffffffffffffffffffffff166104a5610360565b73ffffffffffffffffffffffffffffffffffffffff16146104fb576040517f08c379a00000000000000000000000000000000000000000000000000000000081526004016104f290610790565b60405180910390fd5b600073ffffffffffffffffffffffffffffffffffffffff168173ffffffffffffffffffffffffffffffffffffffff16141561056b576040517f08c379a000000000000000000000000000000000000000000000000000000000815260040161056290610770565b60405180910390fd5b8073ffffffffffffffffffffffffffffffffffffffff1660008054906101000a900473ffffffffffffffffffffffffffffffffffffffff1673ffffffffffffffffffffffffffffffffffffffff167f8be0079c531659141344cd1fd0a4f28419497f9722a3daafe3b4186f6b6457e060405160405180910390a3806000806101000a81548173ffffffffffffffffffffffffffffffffffffffff021916908373ffffffffffffffffffffffffffffffffffffffff16021790555050565b600033905090565b60008135905061063f8161089b565b92915050565b600081359050610654816108b2565b92915050565b60006020828403121561066c57600080fd5b600061067a84828501610630565b91505092915050565b60006020828403121561069557600080fd5b60006106a384828501610645565b91505092915050565b6106b5816107c1565b82525050565b6106c4816107d3565b82525050565b6106d3816107ff565b82525050565b60006106e66026836107b0565b91506106f182610823565b604082019050919050565b60006107096020836107b0565b915061071482610872565b602082019050919050565b600060208201905061073460008301846106ac565b92915050565b600060208201905061074f60008301846106bb565b92915050565b600060208201905061076a60008301846106ca565b92915050565b60006020820190508181036000830152610789816106d9565b9050919050565b600060208201905081810360008301526107a9816106fc565b9050919050565b600082825260208201905092915050565b60006107cc826107df565b9050919050565b60008115159050919050565b600073ffffffffffffffffffffffffffffffffffffffff82169050919050565b600061080a82610811565b9050919050565b600061081c826107df565b9050919050565b7f4f776e61626c653a206e6577206f776e657220697320746865207a65726f206160008201527f6464726573730000000000000000000000000000000000000000000000000000602082015250565b7f4f776e61626c653a2063616c6c6572206973206e6f7420746865206f776e6572600082015250565b6108a4816107c1565b81146108af57600080fd5b50565b6108bb816107d3565b81146108c657600080fd5b5056fea2646970667358221220ecb008cc76d64b5a84746a25e0771f0be04a6de126f2bd5e825f2ab07e0c473b64736f6c63430008010033",
  "immutableReferences": {},
  "source": "// SPDX-License-Identifier: MIT\npragma solidity >=0.4.22 <0.9.0;\n\nimport \"@openzeppelin/contracts/access/Ownable.sol\";\nimport \"@openzeppelin/contracts/utils/math/SafeMath.sol\";\nimport \"@openzeppelin/contracts/token/ERC20/ERC20.sol\";\nimport \"@openzeppelin/contracts/utils/Address.sol\";\nimport \"@openzeppelin/contracts/utils/Context.sol\";\n\nimport \"./LiquidityPool.sol\";\n\ncontract Token is Context, ERC20, Ownable {\n    using SafeMath for uint256;\n    using Address for address;\n\n    string public _name = \"SafePenny.Finance\";\n    string public _symbol = \"SPENNY\";\n\n    uint256 private _iCurrentSupply;\n\n    // data\n    mapping(address => uint256) private _rOwned;\n\n    // tax\n    uint256 public _iTaxFeeInPercent = 5;\n    uint256 private _iPreviousTaxFee = 0;\n\n    // treasury\n    address public _treasuryWallet;\n\n    // LPRouter\n    LiquidityPool public _liquidityPool;\n\n    constructor(uint256 initialSupply, address wallet) ERC20(_name, _symbol) {\n        _treasuryWallet = wallet;\n        _mint(_treasuryWallet, initialSupply);\n\n        _liquidityPool = new LiquidityPool();\n    }\n\n    /**\n     * @param receipent transfer token to this address\n     * @param amount total token to be transfer\n     */\n    function transfer(address receipent, uint256 amount)\n        public\n        override\n        returns (bool)\n    {\n        _chargeableTransfer(receipent, address(this), amount);\n        return true;\n    }\n\n    /**\n     * @param from token coming from\n     * @param to transfer token to this address\n     * @param amount total token to be transfer\n     */\n    function _beforeTokenTransfer(\n        address from,\n        address to,\n        uint256 amount\n    ) internal virtual override {\n        super._beforeTokenTransfer(from, to, amount);\n\n        require(amount > 0, \"Transfer amount must be greater than zero\");\n    }\n\n    function _chargeableTransfer(\n        address from,\n        address to,\n        uint256 amount\n    ) internal virtual {\n        uint256 transferableAmount = calculateTaxFee(amount);\n        emit Transfer(to, from, transferableAmount);\n    }\n\n    /**\n     * Static calculation to retrieve fees\n     * @param amount taxable amount\n     */\n    function calculateTaxFee(uint256 amount) private view returns (uint256) {\n        return amount.mul(_iTaxFeeInPercent).div(100);\n    }\n}\n",
  "sourcePath": "/Users/iqbal/Projects/SmartContract/SafezMoon/contracts/Token.sol",
  "compiler": {
    "name": "solc",
    "version": "0.8.1+commit.df193b15.Emscripten.clang"
  },
  "schemaVersion": "3.4.1",
  "updatedAt": "2021-06-08T22:28:25.598Z",
  "devdoc": {
    "kind": "dev",
    "methods": {
      "allowance(address,address)": {
        "details": "See {IERC20-allowance}."
      },
      "approve(address,uint256)": {
        "details": "See {IERC20-approve}. Requirements: - `spender` cannot be the zero address."
      },
      "balanceOf(address)": {
        "details": "See {IERC20-balanceOf}."
      },
      "decimals()": {
        "details": "Returns the number of decimals used to get its user representation. For example, if `decimals` equals `2`, a balance of `505` tokens should be displayed to a user as `5,05` (`505 / 10 ** 2`). Tokens usually opt for a value of 18, imitating the relationship between Ether and Wei. This is the value {ERC20} uses, unless this function is overridden; NOTE: This information is only used for _display_ purposes: it in no way affects any of the arithmetic of the contract, including {IERC20-balanceOf} and {IERC20-transfer}."
      },
      "decreaseAllowance(address,uint256)": {
        "details": "Atomically decreases the allowance granted to `spender` by the caller. This is an alternative to {approve} that can be used as a mitigation for problems described in {IERC20-approve}. Emits an {Approval} event indicating the updated allowance. Requirements: - `spender` cannot be the zero address. - `spender` must have allowance for the caller of at least `subtractedValue`."
      },
      "increaseAllowance(address,uint256)": {
        "details": "Atomically increases the allowance granted to `spender` by the caller. This is an alternative to {approve} that can be used as a mitigation for problems described in {IERC20-approve}. Emits an {Approval} event indicating the updated allowance. Requirements: - `spender` cannot be the zero address."
      },
      "name()": {
        "details": "Returns the name of the token."
      },
      "owner()": {
        "details": "Returns the address of the current owner."
      },
      "renounceOwnership()": {
        "details": "Leaves the contract without owner. It will not be possible to call `onlyOwner` functions anymore. Can only be called by the current owner. NOTE: Renouncing ownership will leave the contract without an owner, thereby removing any functionality that is only available to the owner."
      },
      "symbol()": {
        "details": "Returns the symbol of the token, usually a shorter version of the name."
      },
      "totalSupply()": {
        "details": "See {IERC20-totalSupply}."
      },
      "transfer(address,uint256)": {
        "params": {
          "amount": "total token to be transfer",
          "receipent": "transfer token to this address"
        }
      },
      "transferFrom(address,address,uint256)": {
        "details": "See {IERC20-transferFrom}. Emits an {Approval} event indicating the updated allowance. This is not required by the EIP. See the note at the beginning of {ERC20}. Requirements: - `sender` and `recipient` cannot be the zero address. - `sender` must have a balance of at least `amount`. - the caller must have allowance for ``sender``'s tokens of at least `amount`."
      },
      "transferOwnership(address)": {
        "details": "Transfers ownership of the contract to a new account (`newOwner`). Can only be called by the current owner."
      }
    },
    "version": 1
  },
  "userdoc": {
    "kind": "user",
    "methods": {},
    "version": 1
  }
}